:0300000002001EDD
:0C001E00787FE4F6D8FD75812B020065A8
:1002850001200001270001260001250002210000B0
:1002950002230212081000000000000000000818E8
:1002A500000000000000000008080001020304052A
:0202B50006073A
:1002B8007594FFE4F593759608F59575B210F5B148
:0902C800F5B4F5B3F5CAF5C9223D
:1002D100758911758CD8758AEFD2AFD2A9C28CD22B
:0402E100ABD28E22EC
:0E02E5001202B81202D1E4F58012013580FE3B
:10013500E4F58053200774082520F8E6F5A0741827
:100145002520F8E6F580E52265247004E521652380
:100155007052752707740F2527F8E6FF74102527B9
:10016500F8A60774102527F8E6FF74182527F8A6C2
:1001750007D527E11201AA7C007D031200AA8D266E
:10018500E52614600C14600E2402700D752501809F
:10019500087525408003752508852510851018E408
:0501A500F521F5222206
:03000B00020242AC
:10024200C0E0C0F0C083C082C0D075D000C000C082
:1002520001C002C003C004C005C006C007758CFC03
:10026200758A171201350520D007D006D005D004B3
:10027200D003D002D001D000D0D0D082D083D0F031
:03028200D0E03297
:03001B000201F7E8
:1001F700C0E0C0F0C083C082C0D075D000C000C0CE
:1002070001C002C003C004C005C006C007758DFC4D
:10021700758B6312013505200522E5227002052141
:10022700D007D006D005D004D003D002D001D0002B
:0B023700D0D0D082D083D0F0D0E032D5
:10002A000202E5E493A3F8E493A34003F68001F205
:10003A0008DFF48029E493A3F85407240CC8C333D7
:10004A00C4540F4420C8834004F456800146F6DFA6
:10005A00E4800B0102040810204080900285E47EAF
:10006A00019360BCA3FF543F30E509541FFEE4939B
:10007A00A360010ECF54C025E060A840B8E493A362
:10008A00FAE493A3F8E493A3C8C582C8CAC583CA8D
:10009A00F0A3C8C582C8CAC583CADFE9DEE780BE45
:0102B7000046
:1000AA00C2D5EC30E709B2D5E4C39DFDE49CFCEE71
:1000BA0030E715B2D5E4C39FFFE49EFE1200E0C309
:1000CA00E49DFDE49CFC80031200E030D507C3E404
:0600DA009FFFE49EFE22E0
:1001AA00AC28AD29AE2AAF2B7810EC4D4E4F700417
:1001BA007CA57DA5C3EC13FCED13FDEE13FEEF1336
:1001CA00FF5010EC64CCFCED644CFDEE644EFEEF87
:1001DA0064CEFFD8DF8C288D298E2A8F2BEE547F90
:0D01EA00FE228E288F2974A5F52AF52B2200
:1000E000BC000BBE0029EF8DF084FFADF022E4CC04
:1000F000F875F008EF2FFFEE33FEEC33FCEE9DECCD
:10010000984005FCEE9DFE0FD5F0E9E4CEFD22ED12
:10011000F8F5F0EE8420D21CFEADF075F008EF2F5C
:10012000FFED33FD4007985006D5F0F222C398FD4D
:050130000FD5F0EA22EA
:00000001FF
