:030000000200F506
:0C00F500787FE4F6D8FD75813102013CF3
:10035600022A00000208000001283F0123000122B2
:1003660000012D00012C00012900022400000226B4
:10037600021208120000000000000000081A000027
:10038600000000000000080A000102030405060739
:100397007594FFE4F593759608F59575B210F5B168
:0903A700F5B4F5B3F5CAF5C9225D
:1003B000758911758CD8758AEFD2AFD2A9C28CD24B
:0403C000ABD28E220C
:0E03C4001203971203B0E4F58012001E80FEB3
:10001E00E52370152097035318FE20B3035318BF22
:10002E0020B2035318F7432036E4F580E52275F02D
:10003E00098485F022C2A3E522C394085012740AE3
:10004E002522F8E6F5A0741A2522F8E6F580800838
:10005E00D2A3852880E4F522E52565277004E524E2
:10006E00652660030200F4E5237078752D07741180
:10007E00252DF8E6FF7412252DF8A6077412252DEE
:10008E00F8E6FF741A252DF8A607D52DE112027B8E
:10009E007C007D031201D68D2CE52C14600C1460AF
:1000AE000E2402700D752901800875294080037594
:1000BE00290885291285121AE4F524F525E519601B
:1000CE001AE528C313F5280509E50970020508E5A8
:1000DE0028701075230112020C8008052BE52B7079
:0700EE0002052A12020C2298
:10020C00751A76AE2AAF2B7C007D641201818F1B90
:10021C00AE2AAF2B7C007D641201817E007F0ACF59
:10022C00CDCFCECCCE1201818F1CAE2AAF2B7C0051
:10023C007D0A1201818D1D751E37AE08AF097C0039
:10024C007D641201818F1FAE08AF097C007D6412A2
:10025C0001817E007F0ACFCDCFCECCCE1201818F13
:0F026C0020AE08AF097C007D0A1201818D21228E
:03000B00020313DA
:10031300C0E0C0F0C083C082C0D075D000C000C0B0
:1003230001C002C003C004C005C006C007758CFC31
:10033300758A1712001E0522D007D006D005D004F7
:10034300D003D002D001D000D0D0D082D083D0F05F
:03035300D0E032C5
:03001B000202C816
:1002C800C0E0C0F0C083C082C0D075D000C000C0FC
:1002D80001C002C003C004C005C006C007758DFC7C
:1002E800758B6312001E05220525E525700205247D
:1002F800D007D006D005D004D003D002D001D0005A
:0B030800D0D0D082D083D0F0D0E03203
:100101000203C4E493A3F8E493A34003F68001F24D
:1001110008DFF48029E493A3F85407240CC8C333FF
:10012100C4540F4420C8834004F456800146F6DFCE
:10013100E4800B0102040810204080900356E47E05
:10014100019360BCA3FF543F30E509541FFEE493C3
:10015100A360010ECF54C025E060A840B8E493A38A
:10016100FAE493A3F8E493A3C8C582C8CAC583CAB5
:10017100F0A3C8C582C8CAC583CADFE9DEE780BE6D
:010396000066
:10018100BC000BBE0029EF8DF084FFADF022E4CC62
:10019100F875F008EF2FFFEE33FEEC33FCEE9DEC2B
:1001A100984005FCEE9DFE0FD5F0E9E4CEFD22ED71
:1001B100F8F5F0EE8420D21CFEADF075F008EF2FBB
:1001C100FFED33FD4007985006D5F0F222C398FDAC
:0501D1000FD5F0EA2249
:1001D600C2D5EC30E709B2D5E4C39DFDE49CFCEE44
:1001E60030E715B2D5E4C39FFFE49EFE120181C33A
:1001F600E49DFDE49CFC800312018130D507C3E435
:060206009FFFE49EFE22B2
:10027B00AC2EAD2FAE30AF317810EC4D4E4F70042D
:10028B007CA57DA5C3EC13FCED13FDEE13FEEF1364
:10029B00FF5010EC64CCFCED644CFDEE644EFEEFB5
:1002AB0064CEFFD8DF8C2E8D2F8E308F31EE547FA6
:0D02BB00FE228E2E8F2F74A5F530F5312216
:00000001FF
