:03000000020110EA
:0C011000787FE4F6D8FD758133020157BA
:10035600022A000002080000022D000001283F01C9
:100366002300012200012F00012C00012900022494
:100376000000022602120812000000000000000021
:10038600081A0000000000000000080A000102032D
:04039600040506074D
:1003DC007594FFE4F593759608F59575B210F5B123
:0903EC00F5B4F5B3F5CAF5C92218
:10000300758911758CD8758AEFD2AFD2A9C28CD2FB
:04001300ABD28E22BC
:0E03F5001203DC120003E4F58012001E80FEED
:10001E00E52370152097035318FE20B3035318BF22
:10002E0020B2035318F7432036E4F580E52275F02D
:10003E00098485F022C2A3E522C394085012740AE3
:10004E002522F8E6F5A0741A2522F8E6F580800838
:10005E00D2A38528807522FF05220525E52570028D
:10006E00052465277004E5246526600302010FE56B
:10007E0023600302010C752F077411252FF8E6FF7C
:10008E007412252FF8A6077412252FF8E6FF741A9E
:10009E00252FF8A607D52FE11203097C007D031248
:1000AE0001F18D2CE52C14600C14600E2402700DE1
:1000BE007529018008752940800375290885291244
:1000CE0085121AE4F524F525E5196029052EE52E8D
:1000DE007002052D0509E50970020508E52E641468
:1000EE00452D701DF52DF52EE528C313F52870113D
:1000FE007523018009052BE52B7006052A221202B5
:02010E002722A6
:10022700AE2AAF2B7C037DE812019C8C2A8D2BAE66
:1002370008AF097C037DE812019C8C088D09751AAB
:1002470076AE2AAF2B7C007D6412019C1202BA8F16
:100257001BAE2AAF2B1202A68F1CAE2AAF2B7C0037
:100267007D0A12019CAE04AF051202BA8F1D751EDE
:1002770038AE08AF097C007D6412019C1202BA8F68
:100287001FAE08AF091202A68F20AE08AF097C0087
:0F0297007D0A12019CAE04AF051202BA8F21221C
:03001B0002039B42
:10039B00C0E0C0F0C083C082C0D075D000C000C028
:1003AB0001C002C003C004C005C006C007758DFCA8
:1003BB00758B6312001ED007D006D005D004D00376
:1003CB00D002D001D000D0D0D082D083D0F0D0E0FA
:0103DB0032EF
:1002A6007C007D6412019C7E007F0ACFCDCFCECC30
:0402B600CE12019CC7
:1002BA00EE7049EFB40A0050439002CAF828287336
:1002CA000202E80202EB0202EE0202F10202F40268
:1002DA0002F70202FA0202FD0203000203037F3F51
:1002EA00227F06227F5B227F4F227F66227F6D223A
:0F02FA007F7D227F07227F7F227F6F227FFF225F
:10011C000203F5E493A3F8E493A34003F68001F201
:10012C0008DFF48029E493A3F85407240CC8C333E4
:10013C00C4540F4420C8834004F456800146F6DFB3
:10014C00E4800B0102040810204080900356E47EEA
:10015C00019360BCA3FF543F30E509541FFEE493A8
:10016C00A360010ECF54C025E060A840B8E493A36F
:10017C00FAE493A3F8E493A3C8C582C8CAC583CA9A
:10018C00F0A3C8C582C8CAC583CADFE9DEE780BE52
:01039A000062
:10019C00BC000BBE0029EF8DF084FFADF022E4CC47
:1001AC00F875F008EF2FFFEE33FEEC33FCEE9DEC10
:1001BC00984005FCEE9DFE0FD5F0E9E4CEFD22ED56
:1001CC00F8F5F0EE8420D21CFEADF075F008EF2FA0
:1001DC00FFED33FD4007985006D5F0F222C398FD91
:0501EC000FD5F0EA222E
:1001F100C2D5EC30E709B2D5E4C39DFDE49CFCEE29
:1002010030E715B2D5E4C39FFFE49EFE12019CC303
:10021100E49DFDE49CFC800312019C30D507C3E4FE
:060221009FFFE49EFE2297
:10030900AC30AD31AE32AF337810EC4D4E4F700496
:100319007CA57DA5C3EC13FCED13FDEE13FEEF13D5
:10032900FF5010EC64CCFCED644CFDEE644EFEEF26
:1003390064CEFFD8DF8C308D318E328F33EE547F0F
:0D034900FE228E308F3174A5F532F533227F
:00000001FF
