:030000000201A852
:0C01A800787FE4F6D8FD7581350201EF88
:100110001520211022102315240523102110222040
:100120002110161021401520211022102310230524
:10013000240525102110241523052510220523054B
:1001400023052205223023202510311027152605EE
:1001500026202510250526052710260525052340E0
:1001600024152405251026102510240523052220FA
:100170001710170516051510161021400000F88CF1
:10018000F95BFA15FA67FB04FB90FC0CFC44FCAC31
:10019000FD09FD34FD82FDC8FE06FE22FE56FE6E00
:0801A000FE9AFEC1FEE4FF031C
:10044C00022C000002080000022F0000012A3F01CC
:10045C002500012300013100012E00012B00022692
:10046C000000022802120812000000000000000028
:10047C00081A0000000000000000080A0001020336
:04048C000405060756
:100344007C007D641202347E007F0ACFCDCFCECCF8
:04035400CE1202348F
:10035800EE7049EFB40A005043900368F8282873F8
:1003680002038602038902038C02038F02039202AE
:10037800039502039802039B02039E0203A17F3F99
:10038800227F06227F5B227F4F227F66227F6D229B
:0F0398007F7D227F07227F7F227F6F227FFF22C0
:1004F500D3EF9400EE940040147D7C7C00ED1D70DC
:0D050500011CED4C70F7EF1F70E61E80E347
:0105120022C6
:1004D200EFC4540FFEEF540FFFBE0104E4FE800C84
:1004E200BE02047E0E8005BE03027E1CEF1425E0D0
:0204F2002EFFDB
:0104F40022E5
:100513007594FFE4F593759608F59575B210F5B1EA
:09052300F5B4F5B3F5CAF5C922DF
:10052C00758911758CD8758AEFD2AFD2A9C28CD2CD
:04053C00ABD28E228E
:0E05400012051312052CE4F5801203A780FEAD
:10001E00E52570152097035318FE20B3035318BF20
:10002E0020B2035318F7432036E4F580E52375F02C
:10003E00098485F023C2A3E523C394085012740AE1
:10004E002523F8E6F5A0741A2523F8E6F580800836
:10005E00D2A3852A807523FF05230527E527700285
:10006E00052665297004E5266528600302010FE563
:10007E0025600302010C75310774112531F8E6FF76
:10008E0074122531F8A60774122531F8E6FF741A9A
:10009E002531F8A607D531E11203FF7C007D03124E
:1000AE0002898D2EE52E14600C14600E2402700D44
:1000BE00752B018008752B408003752B08852B123C
:1000CE0085121AE4F526F527E51960290530E53085
:1000DE007002052F0509E50970020508E530641464
:1000EE00452F701DF52FF530E52AC313F52A701133
:1000FE007525018009052DE52D7006052C221202AD
:02010E00BF220E
:1002BF00AE2CAF2D7C037DE8120234ED24F9F52D21
:1002CF00EC34FFF52CAE08AF097C037DE812023445
:1002DF008C088D09751A76AE2CAF2D7C007D6412BB
:1002EF0002341203588F1BAE2CAF2D1203448F1CF8
:1002FF00AE2CAF2D7C007D0A120234AE04AF051276
:10030F0003588F1D751E38AE08AF097C007D64122F
:10031F0002341203588F1FAE08AF091203448F2007
:10032F00AE08AF097C007D0A120234AE04AF05128D
:05033F0003588F21228C
:03000B0002000EE2
:09000E0085228C85248AB2B432EB
:03001B000204914B
:10049100C0E0C0F0C083C082C0D075D000C000C031
:1004A10001C002C003C004C005C006C007758DFCB1
:1004B100758B6312001ED007D006D005D004D0037F
:1004C100D002D001D000D0D0D082D083D0F0D0E003
:0104D10032F8
:1003A700E4FBEB90011093FF700AFB7FE87E0312DA
:1003B70004F58033BFFF0D0B0B7F647E001204F53D
:1003C700C28C8023EB90011093FF1204D2EF9001AF
:1003D7007E93F522EFA393F5240B85228C85248A3F
:1003E700EB90011093F90BD28CE975F0B4A4FFAE32
:0803F700F01204F5C28C80AA8B
:1001B400020540E493A3F8E493A34003F68001F21C
:1001C40008DFF48029E493A3F85407240CC8C3334C
:1001D400C4540F4420C8834004F456800146F6DF1B
:1001E400E4800B010204081020408090044CE47E5B
:1001F400019360BCA3FF543F30E509541FFEE49310
:10020400A360010ECF54C025E060A840B8E493A3D6
:10021400FAE493A3F8E493A3C8C582C8CAC583CA01
:10022400F0A3C8C582C8CAC583CADFE9DEE780BEB9
:01049000006B
:10023400BC000BBE0029EF8DF084FFADF022E4CCAE
:10024400F875F008EF2FFFEE33FEEC33FCEE9DEC77
:10025400984005FCEE9DFE0FD5F0E9E4CEFD22EDBD
:10026400F8F5F0EE8420D21CFEADF075F008EF2F07
:10027400FFED33FD4007985006D5F0F222C398FDF8
:050284000FD5F0EA2295
:10028900C2D5EC30E709B2D5E4C39DFDE49CFCEE90
:1002990030E715B2D5E4C39FFFE49EFE120234C3D2
:1002A900E49DFDE49CFC800312023430D507C3E4CD
:0602B9009FFFE49EFE22FF
:1003FF00AC32AD33AE34AF357810EC4D4E4F700498
:10040F007CA57DA5C3EC13FCED13FDEE13FEEF13DE
:10041F00FF5010EC64CCFCED644CFDEE644EFEEF2F
:10042F0064CEFFD8DF8C328D338E348F35EE547F10
:0D043F00FE228E328F3374A5F534F5352280
:00000001FF
